:020000040800F2
:10000000F806002089010008DB16000857140008D4
:10001000D916000865030008D71900080000000081
:10002000000000000000000000000000CD170008E4
:100030006703000800000000DD160008A118000892
:10004000A3010008A3010008A3010008A301000800
:10005000A3010008A3010008A3010008A3010008F0
:10006000A3010008A3010008A3010008A3010008E0
:10007000A3010008A3010008A3010008A3010008D0
:10008000A3010008A3010008A3010008A3010008C0
:10009000A3010008A3010008A3010008A3010008B0
:1000A000A3010008A3010008A3010008A3010008A0
:1000B000A3010008A301000800000000A30100083C
:1000C000A30100080000000000000000A3010008D8
:1000D00000000000A3010008A301000800000000C8
:1000E000A3010008A3010008A301000800F002F822
:1000F00000F03AF80AA090E8000C82448344AAF188
:100100000107DA4501D100F02FF8AFF2090EBAE885
:100110000F0013F0010F18BFFB1A43F0010318473B
:100120004C2100006C210000103A24BF78C878C12F
:10013000FAD8520724BF30C830C144BF04680C60ED
:10014000704700000023002400250026103A28BF35
:1001500078C1FBD8520728BF30C148BF0B60704739
:100160001FB51FBD10B510BD00F058F81146FFF7C0
:10017000F7FF01F041FC00F076F803B4FFF7F2FF5F
:1001800003BC00F07DF8000009488047094800479B
:10019000FEE7FEE7FEE7FEE7FEE7FEE7FEE7FEE737
:1001A000FEE7FEE704480549054A064B7047000094
:1001B0000D190008ED000008F8000020F8060020E6
:1001C000F8020020F80200204FF0000200B51346AC
:1001D00094469646203922BFA0E80C50A0E80C5067
:1001E000B1F12001BFF4F7AF090728BFA0E80C5018
:1001F00048BF0CC05DF804EB890028BF40F8042B11
:1002000008BF704748BF20F8022B11F0804F18BF7D
:1002100000F8012B7047704770477047754600F033
:100220002BF8AE4605006946534620F00700854688
:1002300018B020B5FFF7B6FFBDE820404FF000062C
:100240004FF000074FF000084FF0000B21F00701BE
:10025000AC46ACE8C009ACE8C009ACE8C009ACE801
:10026000C0098D46704710B50446AFF300802046A4
:10027000BDE81040FFF781BF0048704794000020A0
:1002800001491820ABBEFEE72600020070470000BF
:1002900070B5044600688168C943C90717D18168F1
:1002A00021F00101816000F017FC05460AE000BF63
:1002B00000F012FC401B022804D920688068C0436B
:1002C000C00706D020688068C043C007F0D0002077
:1002D00070BDA06A40F01000A062E06A40F001002A
:1002E000E062012070BD0000F8B5002604460096CB
:1002F00000688168C943C9072DD0816841F00101B8
:100300008160164816490068B0FBF1F000E0401E1D
:1003100000900028FBD100F0DFFB054616E000BF8F
:1003200000F0DAFB401B022810D920688068C04327
:10033000C0070BD0A06A40F01000A062E06A40F055
:100340000100E06284F824600120F8BD2068806824
:10035000C043C007E4D10020F8BD00001800002011
:1003600040420F00FEE77047F8B5002504460095AF
:1003700090F82400012808D0012084F824002046A9
:10038000FFF786FF060002D053E00220F8BDA06A06
:1003900020F4885040F00200A062022000F024FC0B
:1003A00026490968B1FBF0F0400000E0401E0090D3
:1003B0000028FBD12046FFF797FF2068816841F0B5
:1003C0000801816000F088FB074608E000F084FB2C
:1003D000C01B0A2803D920688068000715D420684C
:1003E00080680007F2D42068816841F004018160D0
:1003F00000F072FB074612E000F06EFBC01B0A28FB
:100400000DD920688068400709D5A06A20F0020055
:1004100040F01000A06284F824500120F8BD20684C
:1004200080684007E8D4A06A20F0020040F0010094
:10043000A06284F824503046F8BD00001800002067
:10044000F8B50024009490F824202546012A12D003
:10045000012280F824204A681F23072A0DD206684B
:10046000776B521E02EB820293409F430B689340CE
:100470001F43776319E00220F8BD06680D2A0AD2EF
:10048000376BD21F02EB820293409F430B6893406D
:100490001F43376309E0F76A0D3A02EB820293408B
:1004A0009F430B6893401F43F7620A68072306685F
:1004B0000A2A0AD3F7680A3A02EB420293409F43A2
:1004C0008B6893401F43F76008E0376902EB4202F4
:1004D00093409F438B6893401F4337610A68102AFB
:1004E00001D0112A20D1124B02689A4217D1936889
:1004F0001B0219D4936843F4000393600968102920
:1005000012D10C490C4A0968B1FBF2F101EB8101EF
:10051000490000E0491E00910029FBD104E0816AF6
:1005200041F020018162012480F824502046F8BD6A
:10053000002401401800002040420F000068C06CF9
:10054000704700002DE9F0414FF0000704003D46E0
:100550007ED0A06A002628B9E66284F8246020468E
:1005600000F07EF82046FFF793FEA16AC90600D48A
:1005700020B1A06A40F01000A06269E0A16A21F4F5
:10058000885141F00201A1626268E169237B0A435C
:1005900047EA43010A43A1684FF48077B94209D082
:1005A000012907D05FF0000194F814C0BCF1010FDD
:1005B00002D00AE03946F7E7F3B1A36A43F020031B
:1005C000A362E36A43F00103E3622368D3F804C043
:1005D0002CF4694C4CEA010CC3F804C021688B6808
:1005E000DFF870C003EA0C0313438B60A168B942C3
:1005F0000BD0012909D00CE0DFF85CC0A3690CEB3B
:1006000043330B4343F40061DFE7218A0D05A5F571
:1006100080152168CB6A23F470032B43CB622168D9
:1006200089680E4B1940914208D1E662A16A21F017
:10063000020141F00101A162BDE8F081A06A20F051
:10064000020040F01000A062E06A40F00100E062A9
:100650000120F1E7FDF7E1FF00E0FFFFFE0E1FFFC5
:1006600000B585B0002100910191029103910068CD
:100670000E49884218D10E48816941F400718161A8
:10068000816901F400710491816941F00401816183
:100690008069694600F00400049002200090032065
:1006A0000190044800F032F905B000BD002401407B
:1006B00000100240000801402DE9F84300270D46D4
:1006C0000446009700F008FA804620688168C90552
:1006D00008D5A06A40F02000A06284F824700120B0
:1006E000BDE8F8834168C90503D4C06A10F4700FEF
:1006F0002AD0022000F078FA3B490968B1FBF0F6F5
:100700002068036939490B424FEA61014FEAA1129F
:100710001FD1C3684FEA611C13EA0C0F19D103699A
:100720000B4225D1C068104222D1142023E0681C5E
:100730000AD02DB100F0D0F9A0EB0800A84203D9EF
:1007400020680068800725D5206800688007EED5FE
:100750002DE003690B4202D1C168114206D0026943
:1007600023490A4206D1C068084203D1542002E05E
:10077000292000E0FC204643009816E0681C11D0B8
:100780002DB100F0A9F9A0EB0800A8420AD9009801
:10079000B04207D2A06A40F00400A06284F824703E
:1007A00003209DE70098401C0090B042E6D32168EA
:1007B0006FF012000860A06A40F40070A062206828
:1007C0008068C0F3424007280CD1207B50B9A06A52
:1007D00020F48070A062A06AC00403D4A06A40F034
:1007E0000100A06200207BE7180000202449922429
:1007F0004992240070B5044690F8240001280DD0D9
:10080000012084F824002046FFF76EFD02004FF01F
:10081000000005D084F82400104670BD022070BD91
:10082000A16A40F20123994341F48071A1621F4DF6
:1008300023681F49AB4218D10E6816F4702F14D0EC
:10084000A66A46F48016A6620E68760505D5A66AE5
:1008500026F4005646F48056A662A66AF6040AD527
:10086000E66A26F00606E66206E0A66A26F4801628
:10087000A6625E68E9E7E06284F824006FF0020097
:10088000186020688368C3F34243072B05D1A84250
:1008900008D1096811F4702F04D0816841F48011E7
:1008A0008160B9E7816841F4A001F9E700280140BF
:1008B0000424014010B5044690F82400012807D014
:1008C000012084F824002046FFF7E2FC10B107E085
:1008D000022010BDA16A21F4885141F00101A162FA
:1008E000002184F8241010BD70B5044600F0F4F81F
:1008F0000546601C02D004480078044400F0ECF87F
:10090000401BA042FAD370BD0C0000202DE9F84F27
:10091000DFF89C91002409F1040A0AF1040B234634
:100920000F270BF1040EBBE00125A5402A40AA4287
:1009300076D1DFF880C14E68A6EB0C0866452BD057
:100940000DDC032E34D005DC36B3012E19D0022E77
:100950002FD11BE0112E16D0122E2AD119E0B8F596
:10096000881F19D006DCB8F5803F15D0B8F5801F78
:100970001FD111E0B8F5001F0ED0B8F5041F18D133
:100980000AE0CB6815E0CB681B1D12E0CB6808338A
:100990000FE0CB680C330CE08B682BB1012B4FF0D0
:1009A000080303D0456104E0042302E0056100E090
:1009B0000023FF2A01D8064601E000F104064FEAB1
:1009C000840501D9A5F12005D6F8008007FA05FCB9
:1009D00028EA0C0803FA05F548EA0508C6F800807D
:1009E0004D68ED005BD5344DAE6946F00106AE6151
:1009F000AD6924F0030605F0010500952F4D06EBC7
:100A0000050CDCF80850A607360F07FA06F825EAA9
:100A10000805DFF8AC80404503D14FF0000810E036
:100A20003DE0DFF8A080404502D14FF0010808E02A
:100A3000DFF89480404502D14FF0020801E04FF00A
:100A4000030808FA06F848EA0508CCF808804D685B
:100A5000D9F80060ED034D4601D5164300E09643FA
:100A60002E604D68DAF80060AD03554601D5164397
:100A700000E096432E604D68DBF80060ED025D46B5
:100A800001D5164300E096432E604D68DEF8006005
:100A9000AD02754601D5164300E096432E60641CF6
:100AA0000A6832FA04F57FF43FAFBDE8F88F000022
:100AB000000401400000111000100240000001403D
:100AC00000080140000C0140001001400AB1016122
:100AD00070470904FBE70000014880687047000088
:100AE0000C00002002488168027811448160704740
:100AF0000C000020074810B5016841F010010160AA
:100B0000032000F05FF80F2000F006F800F024F852
:100B1000002010BD0020024070B50D4D04464FF47A
:100B20007A712878B1FBF0F00A490968B1FBF0F05E
:100B300000F0A0FB48B9102C07D200222146501E1D
:100B400000F020F800206C6070BD012070BD000036
:100B50000C00002018000020094808B5816941F008
:100B600001018161816901F001010091C16941F0D8
:100B70008051C161C06900F08050009008BD000044
:100B800000100240F0B40E4B1B680C46C3F3022366
:100B9000C3F10705042D00D90425191D072901D229
:100BA000002300E0DB1E012606FA05F1491E214064
:100BB00099409E40761E16403143F0BC00F00CBFB9
:100BC0000CED00E0064900F0070208684FF6FF034D
:100BD000184040EA0220034A1043086070470000B2
:100BE0000CED00E00000FA0510B529A401461DCC6B
:100BF00086B08DE81D002AA02A4C006804900020D1
:100C0000012923D002293AD010291DD16168226818
:100C1000D20119D5C1F38342C9031DF8020009D5D9
:100C2000616804AAC1F34041515C1F4AB2FBF1F173
:100C3000484301E01D4948436168490204D440002B
:100C40005FF00301B0FBF1F006B010BD226AC2F301
:100C50000121012903D1920701D5C803F4E7022934
:100C600005D1626A920702D549F64040ECE70329B4
:100C7000EAD121688903E7D54FF22440E4E700F088
:100C800023F96168C1F38131491C4900DAE70000AA
:100C900002030405060708090A0B0C0D0E0F1010BD
:100CA000010200000010024000127A0000093D001D
:100CB0002DE9F84305460078354CC00754D0E0696B
:100CC0000026C00008D4E06940F08050E061E0698F
:100CD000012600F0805000902E480168C90512D40A
:100CE0000168804641F480710160FFF7F5FE074618
:100CF00005E000BFFFF7F0FEC01B642823D8D8F83A
:100D00000000C005F6D5206A10F4407021D0A988F3
:100D100001F4407181421CD0206A1F49012220F455
:100D200040700A6000220A602062C00711D0FFF7FD
:100D3000D3FE074641F2883808E000BFFFF7CCFE3B
:100D4000C11B414502D90320BDE8F883206A800712
:100D5000F4D5206A696820F44070084320621EB10F
:100D6000E06920F08050E0612878800705D5606850
:100D7000A96820F44040084360602878C00605D583
:100D80006068E96820F48000084360600020DBE7C9
:100D90000010024000700040400442422DE9F0473C
:100DA0000F46050061D0434E306800F00700B8429E
:100DB00009D2306820F0070038433060306800F016
:100DC0000700B84251D128683B4C810712D5400733
:100DD00003D5606840F4E06060602878000703D5C0
:100DE000606840F4605060606068A96820F0F000BE
:100DF000084360602878C00728D06868012810D0B0
:100E00002168022810D0890700292EDA616821F0B4
:100E1000030101436160FFF75FFE804641F28839BC
:100E20000DE021688903EFE78901EDE7FFF754FE44
:100E3000A0EB0801494502D90320BDE8F0876068AE
:100E4000696800F00C00B0EB810FEFD1306800F062
:100E50000700B8420BD9306820F0070038433060F3
:100E6000306800F00700B84201D00120E5E728789B
:100E7000400705D56068E96820F4E06008436060D9
:100E80002878000706D56068296920F4605040EA98
:100E9000C100606000F028F86168084AC1F30311DE
:100EA000515CC8400649086006480068FFF734FEF8
:100EB0000020C2E700200240001002405422000837
:100EC0001800002010000020044805490068496807
:100ED000044AC1F3C221515CC84070471800002089
:100EE000001002406422000812A185B00FC98DE8ED
:100EF0000F0014A0144A006804905168134801F0D0
:100F00000C03042B10D0082B0ED1C1F38343C9036B
:100F10001DF803000AD5516804AAC1F34041515C91
:100F20000A4A5043B0FBF1F005B070470849484306
:100F3000FAE7000002030405060708090A0B0C0D76
:100F40000E0F1010010200000010024000127A0083
:100F500000093D002DE9F84F040070D02078C04D05
:100F6000C00749D06868C0F38100012807D06868CD
:100F7000C0F38100022809D16868C00306D528683B
:100F8000800339D560680028E7D035E06068B0F5A7
:100F9000803F0BD010B1B0F5A02F11D0286820F4FD
:100FA00080302860286820F4802002E0286840F41F
:100FB00080302860606890B1FFF78EFD06460AE039
:100FC000286840F480202860F0E700BFFFF784FD28
:100FD000801B642873D828688003F7D50CE0FFF7DE
:100FE0007BFD064605E000BFFFF776FD801B642809
:100FF000F0D828688003F7D420789A4E80074FF005
:1010000001094FF0000839D5686810F00C0F07D0BF
:101010006868C0F38100022809D16868C00306D45B
:101020002868800714D52069012808D110E02069BC
:10103000B0B1C6F80090FFF74FFD074605E00AE1A2
:10104000FFF74AFDC01B0228C4D828688007F7D5DF
:101050002868616920F0F80040EAC10028600DE0CE
:10106000C6F80080FFF738FD074604E0FFF734FDBF
:10107000C01B022823D828688007F7D420780007EF
:101080002CD57948A169D9B1C0F80090FFF724FDAB
:10109000074604E0FFF720FDC01B02280FD8686A4E
:1010A0008007F7D571484FF4FA510068B0FBF1F0B2
:1010B000009000BF0098411E0091FAD20EE080E03F
:1010C000C0F80080FFF708FD074604E0FFF704FDC5
:1010D000C01B022875D8686A8007F7D420784007BB
:1010E00060D5E8690027C00008D4E86940F0805066
:1010F000E861E869012700F0805000905C480168D1
:10110000C90513D40168834641F480710160FFF77B
:10111000E3FC824606E000BFFFF7DEFCA0EB0A001E
:1011200064284ED8DBF80000C005F5D5E06801283A
:101130000AD008B1052813D0286A20F001002862DF
:10114000286A20F0040002E0286A40F001002862CA
:10115000E06841F2883B98B1FFF7BEFC82460BE0A5
:10116000286A40F004002862EEE700BFFFF7B4FCF5
:10117000A0EB0A0159455AD8286A8007F6D50CE039
:10118000FFF7AAFC824605E0FFF7A6FCA0EB0A01E8
:1011900059454CD8286A8007F6D41FB1E86920F079
:1011A0008050E861E06988B36968C1F38101022970
:1011B00044D00228C6F8608004D0FFF78DFC0446B6
:1011C00038E034E0FFF788FC074604E0FFF784FCD2
:1011D000C01B02282BD828688001F7D4206AB0F5FC
:1011E000803F05D16868A16820F40030084368603A
:1011F000D4E908010843696821F474110843686060
:10120000C6F86090FFF768FC044606E025E000BFE2
:10121000FFF762FC001B022809D828688001F7D577
:101220001BE000BFFFF758FC001B022802D9032077
:10123000BDE8F88F28688001F4D40EE00128F7D0CB
:101240006868226A00F48031914204D1616A00F436
:101250007010884201D00120EAE70020E8E7000092
:101260000010024000004242800442421800002068
:101270000070004010B5401EB0F1807F01D3012006
:1012800010BD4FF0E02460610F21601700F0A4FB57
:101290000020A06107202061002010BD70B590F8EB
:1012A0003C20012A23D0012480F83C40022280F80F
:1012B0003D2003685A689D6822F070060A68324330
:1012C0005A600C4B02689A4205D0B2F1804F02D0AE
:1012D000094B9A4204D1496825F080031943916073
:1012E00080F83D40002180F83C10084670BD022087
:1012F00070BD0000002C01400004004010B5040047
:1013000003D094F83D0010B107E0012010BD00208B
:1013100084F83C00204600F01FF8022084F83D00CD
:10132000211D206800F0F4FA012084F8460084F8BA
:101330003E0084F83F0084F8400084F8410084F8BF
:10134000420084F8430084F8440084F8450084F89F
:101350003D00002010BD000008B500680649884225
:1013600008D10648816941F400618161806900F417
:101370000060009008BD0000002C014000100240F9
:1013800070B5044690F83C00012817D0012584F878
:101390003C50022084F83D002068826822F07702E9
:1013A00022F47F4282600868502830D00DDC20286B
:1013B0004DD005DC98B310283BD148E0022070BD29
:1013C000302844D0402834D139E0602828D0702813
:1013D00006D0B0F5805F2CD0B0F5005F29D10AE0CF
:1013E000CB68D1E90121206800F0C0FA206881684B
:1013F00041F0770109E0CB68D1E90121206800F0D4
:10140000B5FA2068816841F48041816011E0CA68C2
:101410004968206800F0BCFA5021206807E016E017
:10142000CA684968206800F0C4FA6021206800F0AA
:10143000A7FA84F83D50002084F83C0070BDCA68CB
:101440004968206800F0A4FA40212068EFE722688C
:1014500001461046EBE7FEE710B5194C17486060EF
:101460001848A0600F20FFF73FFA61680320884703
:101470000520FFF739FA6168032088470120FFF74C
:1014800033FA616832208847204681784078C90065
:1014900041EA8000C0B2616840F02000884761687E
:1014A00008208847616801208847616806208847CE
:1014B0006168BDE810400C2008470000D117000803
:1014C00000000020E116000810B5194C17486060B4
:1014D0001848A0600F20FFF707FA6168302088479E
:1014E0000520FFF701FA6168302088470120FFF7E7
:1014F000FBF9616830208847204681784078C90030
:1015000041EA8000C0B2616840F0300088476168FD
:10151000082088476168012088476168062088475D
:101520006168BDE810400C2008470000551800080D
:101530000000002079170008094A526841B10129CA
:1015400008D0022908D0032908D1D430C0B21047EE
:101550008030FBE7C030F9E79430F7E770470000D0
:101560000000002005480078022803D0032803D19A
:10157000FFF7AABFFFF770BF704700000000002010
:1015800070B50446044D02E0A9688847641C2078C1
:101590000028F9D170BD0000000000203EB50024F5
:1015A00010480094019402940D4984600160047312
:1015B0000475012505614FF460214460C161FEF7A7
:1015C000C1FF08B172B6FEE70095CDE90154694646
:1015D0000448FEF735FF002801D072B6FEE73EBD95
:1015E000002401401C0000202DE9F04385B00024B8
:1015F0001D480094019402940394816941F0040110
:101600008161816901F004010491816941F008015F
:1016100081618069DFF8548000F008004FF6FF65B3
:101620000490002229464046FFF750FADFF8409028
:101630006F1C002239464846FFF748FA00950226FB
:1016400001250396CDE9015469464046FFF75EF94E
:1016500000970396CDE9015469464846FFF756F9CD
:1016600005B0BDE8F083000000100240000C01400E
:101670000008014010B586B000241648009401947B
:1016800002940394049412490594C0E90014FF21C4
:10169000C0E90241046144618461FFF72FFE08B193
:1016A00072B6FEE74FF48050009069460948FFF794
:1016B00067FE08B172B6FEE7049404A905480594D4
:1016C000FFF7ECFD002801D072B6FEE706B010BDB2
:1016D000002C01404C000020FEE7FEE770470000B0
:1016E0002DE9F04104460120FFF7FEF80122DFF862
:1016F0008480D50229464046FFF7E8F96E100022A3
:1017000031464046FFF7E2F900220F214046FFF73D
:10171000DDF9210901224046FFF7D8F901225702DD
:1017200039464046FFF7D2F9002239464046FFF7D6
:10173000CDF9012229464046FFF7C8F9002231467B
:101740004046FFF7C3F900220F214046FFF7BEF9DC
:1017500004F00F0101224046FFF7B8F90122394693
:101760004046FFF7B3F939464046BDE8F041002254
:10177000FFF7ACB9000C014070B504460120FFF73B
:10178000B3F8114D0122D1022846FFF79FF900223C
:1017900029152846FFF79AF90022FF212846FFF76E
:1017A00095F9012221462846FFF790F901225402BB
:1017B00021462846FFF78AF921462846BDE87040B1
:1017C0000022FFF783B90000000C014070470000C1
:1017D0002DE9F04104460120FFF786F81C4E4FF436
:1017E0004065002229463046FFF770F900220F219C
:1017F0003046FFF76BF9210901223046FFF766F901
:101800000122570239463046FFF760F90022394677
:101810003046FFF75BF9002229463046FFF756F9BC
:1018200000220F213046FFF751F904F00F01012289
:101830003046FFF74BF9012239463046FFF746F9AB
:1018400039463046BDE8F0410022FFF73FB90000BD
:10185000000C014070B504460120FFF745F80F4D1C
:1018600000224FF440612846FFF730F90022FF21A3
:101870002846FFF72BF9012221462846FFF726F9D3
:101880000122540221462846FFF720F92146284626
:10189000BDE870400022FFF719B90000000C0140BC
:1018A000FFF720B930B593B028216846FEF78CFCCD
:1018B00014210AA8FEF788FC002401200F940225B9
:1018C00004900095102011940590109412940794A0
:1018D0006846FFF73FFB08B172B6FEE70F20CDE97F
:1018E0000A040C940D9400210AA80E94FFF756FAEE
:1018F00008B172B6FEE70FA80F951194FFF7D8F95B
:10190000002801D072B6FEE713B030BD704700006A
:1019100070B50268134B144C4FF08046984203D0C8
:10192000B04201D0A04203D122F070054A682A4398
:10193000984203D0B04201D0A04203D122F44074B7
:10194000CA6822434C6922F08002224302608A68FE
:10195000C2620A688262984201D109690163012169
:10196000416170BD002C01400004004010B5846846
:1019700042EA032224F47F440A432243826010BDDA
:10198000826822F070020A4342F0070181607047CA
:1019900010B5036A046A24F001040462846924F027
:1019A000F00444EA021423F00A020A43846102624A
:1019B00010BD10B5036A23F0100303628369046A43
:1019C00023F4704343EA023224F0A00343EA0111F6
:1019D0008261016210BDFEE70907090E002804DBE1
:1019E00000F1E02080F80014704700F00F0000F1D3
:1019F000E02080F8141D70470524FFF77BF8FFF7FF
:101A000051FFFFF7F1FDFFF7C9FDFFF733FE9848DF
:101A100003210170012141708170FFF7A3FD9548FA
:101A2000FEF7A2FC012251039348FFF74FF84FF055
:101A30000A0892490120096888478E48FEF7DAFEB5
:101A4000DFF83CA28B485146FEF736FE88BB89483A
:101A5000FEF774FD00F003FA8A4A8B4B00F012FA8D
:101A600000228A4B00F026F900F0CCF905464146E9
:101A7000B0FBF1F03030C6B2B5FBF8F008FB105700
:101A800083A03037FFF77CFD3046854E31688847AC
:101A90003168384688471D2D01D9012200E0002217
:101AA0004FF480417448FFF711F8142D02D201223F
:101AB00001E005E000224FF400416F48FFF706F80F
:101AC0006C48FEF7F7FE6C4F4FF40056002231468B
:101AD0003846FEF7FBFF4FF4FA794846FEF704FF5D
:101AE0006448FEF787FE51466248FEF7E5FDE8BB15
:101AF0006048FEF723FD4FF47A7AB0FBFAF20AFB56
:101B00001200C0F57A754D4501D2012201E02CB1D9
:101B100000224FF480513846FEF7D8FF0121002003
:101B2000FFF70AFD5FA0FFF72BFDB5FBFAF064207D
:101B3000B5FBF0F14046B1FBF0F208FB1211B5FB2A
:101B4000F0F2B2FBF0F308FB132202F1300BB5FB0D
:101B5000F8F208FB1250524D00F1300A01F130004A
:101B60002968884729685846884700E002E02968C4
:101B7000504688473F48FEF79DFE0122B246314657
:101B8000BB463846FEF7A2FF4846FEF7ADFE002CE6
:101B900067D0641EB4FBF8F14046B4FBF0F508FBD7
:101BA000114606F001073A464FF480714048FEF7AF
:101BB0008DFF06F00309A9EB070000EBD070C0F31E
:101BC00047024FF400713A48FEF780FF06F007071E
:101BD000A7EB0900C11700EB9170C0F387024FF427
:101BE00080613348FEF772FF06F00F00C01BC1177B
:101BF00000EB5170C0F3C7024FF400612C48FEF7B0
:101C000065FF05F0010632464FF480512848FEF783
:101C10005DFF05F00307B81B00EBD070C0F347026F
:101C200051462348FEF752FF05F00706F01BC11787
:101C300000EB9170C0F387024FF480411C48FEF71F
:101C400045FF05F00F00801BC11700EB5170C0F37A
:101C5000C7024FF400411648FEF738FF002C7FF40E
:101C6000E8AE012211035846FEF730FFE1E600001E
:101C7000000000201C000020000C01400400002097
:101C800040420F0060E5D022DBF9BE3F0000F03F8C
:101C900054656D70657261747572653A200000005C
:101CA000080000204C6967687420496E733A200070
:101CB0000008014010B591EA030F48BF83F00043CC
:101CC00000F1E681841A71EB030C05D2121943EB83
:101CD0000C03001B61EB0C01DFF824E14FEA115407
:101CE000A4EB135C1EEA430F18BF9EEA445F73D057
:101CF00023EA0E03DCF1200E21EA045143F48013A1
:101D000032D322FA0CFE10EB0E0023FA0CFE41EB4C
:101D10000E01CCF1200E03FA0EFE10EB0E0051F175
:101D20000001B1F5801FCCF1200E32D201EB04513D
:101D300012FA0EF2BDE8104058BF7047401C38BF81
:101D40005FEA420218BF7047002814BF20F001006C
:101D500041F100014FEA410313F5001F38BF7047FE
:101D6000A1F1C04100F086B9012A43EB0302ACF1B6
:101D7000200CDCF11F0E32BF4FF0000E23FA0CF3E3
:101D800010EB030041EB0451B4EB115FD0D0A1EB99
:101D9000045101F5801149085FEA300001EB04515C
:101DA0000ED350F1000038BF12FA0EFE08D1BDE884
:101DB0001040C9E7401C38BF5FEA4202CAD1C3E7FE
:101DC000BDE810404FEA410313F5001F38BF7047CC
:101DD000A1F1C04100F04EB99EEA445F08D011EA7B
:101DE0005E0FBDE8104004BF01F0004100207047C5
:101DF000BDE8104070B500F0EFF800BF64FBBE3ED8
:101E00000000E0FF4FEA1153A3F58063D3F11E03F6
:101E1000A8BFD3F1200C08DB4FF0004242EAC122F8
:101E200052EA505232FA03F0704709420BD4102B99
:101E3000C4BF0020704703F5787CBCF1FF3F05D09C
:101E40004FF0FF3070474FF00000704770B500F062
:101E5000C3F800BF4992248000207047F0E7B0FA31
:101E600080F310FA03F10AD0C3F11D0303F5806378
:101E70004FEA41504FEA035202EBD12170474FF035
:101E800000007047DFF848C170B51CEA111E1EBF84
:101E90001CEA13159EEA0C0F95EA0C0F00F06F80F8
:101EA00081EA030423EA4C134EEAD47E21EA4C1162
:101EB00041F4801143F48013AE44A1FB024CA0FB1B
:101EC0000365AEF17F7E361955EB0C05A1FB034C83
:101ED0004CF10003A0FB021C16EB0C06654153F10C
:101EE0000003094218BF46F0010613F4007F0BD12E
:101EF0004FEA03314FEA0530340341EA155140EA15
:101F000016506FF003020AE04FEAC3214FEAC520E2
:101F1000F40241EA555140EA56506FF0020202EBDA
:101F20002E4201EB025585EACE710AD05FEA440CDD
:101F300018BF24F0004450F1000041F1000120EAF4
:101F4000D47040F2FE7C624500D270BDA84214BF3E
:101F50004FF080444FF04044002E08BF0024BEF1F3
:101F6000806FA8BFA1F1C041BDE8704080F28280BF
:101F70004FF0000001F1C04101F0004170479EEABE
:101F80000C0F0CEA131518BF95EA0C0F06D04FF092
:101F9000000081EA030E0EF0004170BD00F01CF855
:101FA0008900013E00F007B800F009B84FEA430C81
:101FB0005FEA5C5C08D081EA030100F05BB84FEA9D
:101FC000410C5FEA5C5CF6D14FF0000001497047BC
:101FD0000000FF070000F87F0EF1020E2EF0030E46
:101FE0005EF8046B364205D4012A43EB030515F570
:101FF000001F12D8012841EB010C1CF5001F0CD862
:102000000ED14FEAD17C15F5001F0CEB4C0C0CF1F6
:10201000020C08BF4CEBD37C04E04FF0080C01E04D
:102020004FEAD37C0CEB4C0526FA05F606F00706C2
:10203000B6F1040C06D20EEB860CBDE870404CF0F5
:10204000010C6047DFE80CF0090B02024FF0004181
:102050004FF00000A1F5002170BD1946104601287F
:1020600051EB010418BFD4F5001484BF002001F027
:10207000004170BD0808A0F500114FEA310170471A
:1020800010B591EA030F48BF83F000433FF51AAE45
:10209000841A71EB030C07D212198CF0004C43EB3D
:1020A0000C03001B61EB0C01DFF8A4E14FEA1154B3
:1020B000A4EB135C1EEA430F18BF9EEA445F00F0D6
:1020C000B08023EA6E03524221EA0451C3EB6E034F
:1020D00038BF5B1EDCF1200E25D322FA0CFE10EB7C
:1020E0000E0043FA0CFE41EB0E01CCF1200E03FA78
:1020F0000EFE10EB0E0051F10001CCF1200E29D4A0
:1021000012FA0EF201EB0451BDE8104058BF7047BF
:10211000401C1CBFB2F1004F704700280CBF491C87
:1021200020F00100704712EB020E43EB030218BFD0
:102130004FF0010E4EEA4202ACF1200CDCF11E0E13
:1021400054D943FA0CFE10EB0E0051F1FF31CCF1E3
:102150001E0ED5D50EF1010E12FA0EFE404141EBD6
:10216000010101EB445C5FEA5C5C10D910EBDE70AE
:1021700001EB045138BFBEF1004FBDE8104018BF5D
:10218000704700280CBF491C20F00100704730D276
:102190004FEAD42C11F5001124F400641BD0B1FADD
:1021A00081F20B3AA41AA41ED2F12003914030FA16
:1021B00003F31943904001EBCC71002C01EB045167
:1021C000BDE81040A8BF704701F1C0414FF00000CA
:1021D00001F000417047B0FA80F310FA03F100D12A
:1021E00010BDE41A173C4805C90AE4E701EB0451A5
:1021F00010BD491001EB0451BDE810404FEA30001A
:1022000002E04FF0000170474A0008BF0042F8D0DA
:10221000B2F5001F28BF704701F000414FF00000E9
:1022200070479EEA445F07D011EA5E0FBDE8104098
:1022300004BF002100207047BDE8104070B5FFF7D3
:10224000CBFE00BF40DFF63E83F0004110467047F2
:102250000000E0FF00000000000000000102030495
:102260000607080900000000010203048C22000890
:10227000000000201C00000028010008A82200081F
:102280001C000020DC0600004401000800000000E3
:10229000000000000000000001000000100000002D
:0822A000000000000024F4001E
:04000005080000ED02
:00000001FF
